{
  "contractName": "Land",
  "abi": [
    {
      "inputs": [],
      "stateMutability": "nonpayable",
      "type": "constructor"
    },
    {
      "inputs": [
        {
          "internalType": "address",
          "name": "",
          "type": "address"
        }
      ],
      "name": "InspectorMapping",
      "outputs": [
        {
          "internalType": "uint256",
          "name": "id",
          "type": "uint256"
        },
        {
          "internalType": "address",
          "name": "_addr",
          "type": "address"
        },
        {
          "internalType": "string",
          "name": "name",
          "type": "string"
        },
        {
          "internalType": "uint256",
          "name": "age",
          "type": "uint256"
        },
        {
          "internalType": "string",
          "name": "designation",
          "type": "string"
        },
        {
          "internalType": "string",
          "name": "city",
          "type": "string"
        }
      ],
      "stateMutability": "view",
      "type": "function"
    },
    {
      "inputs": [
        {
          "internalType": "uint256",
          "name": "",
          "type": "uint256"
        }
      ],
      "name": "LandRequestMapping",
      "outputs": [
        {
          "internalType": "uint256",
          "name": "reqId",
          "type": "uint256"
        },
        {
          "internalType": "address payable",
          "name": "sellerId",
          "type": "address"
        },
        {
          "internalType": "address payable",
          "name": "buyerId",
          "type": "address"
        },
        {
          "internalType": "uint256",
          "name": "landId",
          "type": "uint256"
        },
        {
          "internalType": "enum Land.reqStatus",
          "name": "requestStatus",
          "type": "uint8"
        },
        {
          "internalType": "bool",
          "name": "isPaymentDone",
          "type": "bool"
        }
      ],
      "stateMutability": "view",
      "type": "function"
    },
    {
      "inputs": [
        {
          "internalType": "address",
          "name": "",
          "type": "address"
        }
      ],
      "name": "UserMapping",
      "outputs": [
        {
          "internalType": "address",
          "name": "id",
          "type": "address"
        },
        {
          "internalType": "string",
          "name": "name",
          "type": "string"
        },
        {
          "internalType": "uint256",
          "name": "age",
          "type": "uint256"
        },
        {
          "internalType": "string",
          "name": "city",
          "type": "string"
        },
        {
          "internalType": "string",
          "name": "aadharNumber",
          "type": "string"
        },
        {
          "internalType": "string",
          "name": "panNumber",
          "type": "string"
        },
        {
          "internalType": "string",
          "name": "document",
          "type": "string"
        },
        {
          "internalType": "string",
          "name": "email",
          "type": "string"
        },
        {
          "internalType": "bool",
          "name": "isUserVerified",
          "type": "bool"
        }
      ],
      "stateMutability": "view",
      "type": "function"
    },
    {
      "inputs": [],
      "name": "documentId",
      "outputs": [
        {
          "internalType": "uint256",
          "name": "",
          "type": "uint256"
        }
      ],
      "stateMutability": "view",
      "type": "function"
    },
    {
      "inputs": [
        {
          "internalType": "uint256",
          "name": "",
          "type": "uint256"
        }
      ],
      "name": "lands",
      "outputs": [
        {
          "internalType": "uint256",
          "name": "id",
          "type": "uint256"
        },
        {
          "internalType": "uint256",
          "name": "area",
          "type": "uint256"
        },
        {
          "internalType": "string",
          "name": "landAddress",
          "type": "string"
        },
        {
          "internalType": "uint256",
          "name": "landPrice",
          "type": "uint256"
        },
        {
          "internalType": "string",
          "name": "allLatitudeLongitude",
          "type": "string"
        },
        {
          "internalType": "uint256",
          "name": "propertyPID",
          "type": "uint256"
        },
        {
          "internalType": "string",
          "name": "physicalSurveyNumber",
          "type": "string"
        },
        {
          "internalType": "string",
          "name": "document",
          "type": "string"
        },
        {
          "internalType": "bool",
          "name": "isforSell",
          "type": "bool"
        },
        {
          "internalType": "address payable",
          "name": "ownerAddress",
          "type": "address"
        },
        {
          "internalType": "bool",
          "name": "isLandVerified",
          "type": "bool"
        }
      ],
      "stateMutability": "view",
      "type": "function"
    },
    {
      "inputs": [],
      "name": "landsCount",
      "outputs": [
        {
          "internalType": "uint256",
          "name": "",
          "type": "uint256"
        }
      ],
      "stateMutability": "view",
      "type": "function"
    },
    {
      "inputs": [],
      "name": "userCount",
      "outputs": [
        {
          "internalType": "uint256",
          "name": "",
          "type": "uint256"
        }
      ],
      "stateMutability": "view",
      "type": "function"
    },
    {
      "inputs": [
        {
          "internalType": "address",
          "name": "_addr",
          "type": "address"
        }
      ],
      "name": "isContractOwner",
      "outputs": [
        {
          "internalType": "bool",
          "name": "",
          "type": "bool"
        }
      ],
      "stateMutability": "view",
      "type": "function"
    },
    {
      "inputs": [
        {
          "internalType": "address",
          "name": "_addr",
          "type": "address"
        }
      ],
      "name": "changeContractOwner",
      "outputs": [],
      "stateMutability": "nonpayable",
      "type": "function"
    },
    {
      "inputs": [
        {
          "internalType": "address",
          "name": "_addr",
          "type": "address"
        },
        {
          "internalType": "string",
          "name": "_name",
          "type": "string"
        },
        {
          "internalType": "uint256",
          "name": "_age",
          "type": "uint256"
        },
        {
          "internalType": "string",
          "name": "_designation",
          "type": "string"
        },
        {
          "internalType": "string",
          "name": "_city",
          "type": "string"
        }
      ],
      "name": "addLandInspector",
      "outputs": [
        {
          "internalType": "bool",
          "name": "",
          "type": "bool"
        }
      ],
      "stateMutability": "nonpayable",
      "type": "function"
    },
    {
      "inputs": [],
      "name": "ReturnAllLandIncpectorList",
      "outputs": [
        {
          "internalType": "address[]",
          "name": "",
          "type": "address[]"
        }
      ],
      "stateMutability": "view",
      "type": "function"
    },
    {
      "inputs": [
        {
          "internalType": "address",
          "name": "_addr",
          "type": "address"
        }
      ],
      "name": "removeLandInspector",
      "outputs": [],
      "stateMutability": "nonpayable",
      "type": "function"
    },
    {
      "inputs": [
        {
          "internalType": "address",
          "name": "_id",
          "type": "address"
        }
      ],
      "name": "isLandInspector",
      "outputs": [
        {
          "internalType": "bool",
          "name": "",
          "type": "bool"
        }
      ],
      "stateMutability": "view",
      "type": "function"
    },
    {
      "inputs": [
        {
          "internalType": "address",
          "name": "_addr",
          "type": "address"
        }
      ],
      "name": "isUserRegistered",
      "outputs": [
        {
          "internalType": "bool",
          "name": "",
          "type": "bool"
        }
      ],
      "stateMutability": "view",
      "type": "function"
    },
    {
      "inputs": [
        {
          "internalType": "string",
          "name": "_name",
          "type": "string"
        },
        {
          "internalType": "uint256",
          "name": "_age",
          "type": "uint256"
        },
        {
          "internalType": "string",
          "name": "_city",
          "type": "string"
        },
        {
          "internalType": "string",
          "name": "_aadharNumber",
          "type": "string"
        },
        {
          "internalType": "string",
          "name": "_panNumber",
          "type": "string"
        },
        {
          "internalType": "string",
          "name": "_document",
          "type": "string"
        },
        {
          "internalType": "string",
          "name": "_email",
          "type": "string"
        }
      ],
      "name": "registerUser",
      "outputs": [],
      "stateMutability": "nonpayable",
      "type": "function"
    },
    {
      "inputs": [
        {
          "internalType": "address",
          "name": "_userId",
          "type": "address"
        }
      ],
      "name": "verifyUser",
      "outputs": [],
      "stateMutability": "nonpayable",
      "type": "function"
    },
    {
      "inputs": [
        {
          "internalType": "address",
          "name": "id",
          "type": "address"
        }
      ],
      "name": "isUserVerified",
      "outputs": [
        {
          "internalType": "bool",
          "name": "",
          "type": "bool"
        }
      ],
      "stateMutability": "view",
      "type": "function"
    },
    {
      "inputs": [],
      "name": "ReturnAllUserList",
      "outputs": [
        {
          "internalType": "address[]",
          "name": "",
          "type": "address[]"
        }
      ],
      "stateMutability": "view",
      "type": "function"
    },
    {
      "inputs": [
        {
          "internalType": "uint256",
          "name": "_area",
          "type": "uint256"
        },
        {
          "internalType": "string",
          "name": "_address",
          "type": "string"
        },
        {
          "internalType": "uint256",
          "name": "landPrice",
          "type": "uint256"
        },
        {
          "internalType": "string",
          "name": "_allLatiLongi",
          "type": "string"
        },
        {
          "internalType": "uint256",
          "name": "_propertyPID",
          "type": "uint256"
        },
        {
          "internalType": "string",
          "name": "_surveyNum",
          "type": "string"
        },
        {
          "internalType": "string",
          "name": "_document",
          "type": "string"
        }
      ],
      "name": "addLand",
      "outputs": [],
      "stateMutability": "nonpayable",
      "type": "function"
    },
    {
      "inputs": [],
      "name": "ReturnAllLandList",
      "outputs": [
        {
          "internalType": "uint256[]",
          "name": "",
          "type": "uint256[]"
        }
      ],
      "stateMutability": "view",
      "type": "function"
    },
    {
      "inputs": [
        {
          "internalType": "uint256",
          "name": "_id",
          "type": "uint256"
        }
      ],
      "name": "verifyLand",
      "outputs": [],
      "stateMutability": "nonpayable",
      "type": "function"
    },
    {
      "inputs": [
        {
          "internalType": "uint256",
          "name": "id",
          "type": "uint256"
        }
      ],
      "name": "isLandVerified",
      "outputs": [
        {
          "internalType": "bool",
          "name": "",
          "type": "bool"
        }
      ],
      "stateMutability": "view",
      "type": "function"
    },
    {
      "inputs": [
        {
          "internalType": "address",
          "name": "id",
          "type": "address"
        }
      ],
      "name": "myAllLands",
      "outputs": [
        {
          "internalType": "uint256[]",
          "name": "",
          "type": "uint256[]"
        }
      ],
      "stateMutability": "view",
      "type": "function"
    },
    {
      "inputs": [
        {
          "internalType": "uint256",
          "name": "id",
          "type": "uint256"
        }
      ],
      "name": "makeItforSell",
      "outputs": [],
      "stateMutability": "nonpayable",
      "type": "function"
    },
    {
      "inputs": [
        {
          "internalType": "uint256",
          "name": "_landId",
          "type": "uint256"
        }
      ],
      "name": "requestforBuy",
      "outputs": [],
      "stateMutability": "nonpayable",
      "type": "function"
    },
    {
      "inputs": [],
      "name": "myReceivedLandRequests",
      "outputs": [
        {
          "internalType": "uint256[]",
          "name": "",
          "type": "uint256[]"
        }
      ],
      "stateMutability": "view",
      "type": "function"
    },
    {
      "inputs": [],
      "name": "mySentLandRequests",
      "outputs": [
        {
          "internalType": "uint256[]",
          "name": "",
          "type": "uint256[]"
        }
      ],
      "stateMutability": "view",
      "type": "function"
    },
    {
      "inputs": [
        {
          "internalType": "uint256",
          "name": "_requestId",
          "type": "uint256"
        }
      ],
      "name": "acceptRequest",
      "outputs": [],
      "stateMutability": "nonpayable",
      "type": "function"
    },
    {
      "inputs": [
        {
          "internalType": "uint256",
          "name": "_requestId",
          "type": "uint256"
        }
      ],
      "name": "rejectRequest",
      "outputs": [],
      "stateMutability": "nonpayable",
      "type": "function"
    },
    {
      "inputs": [
        {
          "internalType": "uint256",
          "name": "id",
          "type": "uint256"
        }
      ],
      "name": "requesteStatus",
      "outputs": [
        {
          "internalType": "bool",
          "name": "",
          "type": "bool"
        }
      ],
      "stateMutability": "view",
      "type": "function"
    },
    {
      "inputs": [
        {
          "internalType": "uint256",
          "name": "id",
          "type": "uint256"
        }
      ],
      "name": "landPriceFun",
      "outputs": [
        {
          "internalType": "uint256",
          "name": "",
          "type": "uint256"
        }
      ],
      "stateMutability": "view",
      "type": "function"
    },
    {
      "inputs": [
        {
          "internalType": "uint256",
          "name": "_requestId",
          "type": "uint256"
        }
      ],
      "name": "makePayment",
      "outputs": [],
      "stateMutability": "payable",
      "type": "function"
    },
    {
      "inputs": [],
      "name": "returnPaymentDoneList",
      "outputs": [
        {
          "internalType": "uint256[]",
          "name": "",
          "type": "uint256[]"
        }
      ],
      "stateMutability": "view",
      "type": "function"
    },
    {
      "inputs": [
        {
          "internalType": "uint256",
          "name": "_requestId",
          "type": "uint256"
        },
        {
          "internalType": "string",
          "name": "documentUrl",
          "type": "string"
        }
      ],
      "name": "transferOwnership",
      "outputs": [
        {
          "internalType": "bool",
          "name": "",
          "type": "bool"
        }
      ],
      "stateMutability": "nonpayable",
      "type": "function"
    },
    {
      "inputs": [
        {
          "internalType": "address payable",
          "name": "_reveiver",
          "type": "address"
        }
      ],
      "name": "makePaymentTestFun",
      "outputs": [],
      "stateMutability": "payable",
      "type": "function"
    }
  ],
  "bytecode": "0x6080604052348015600e575f5ffd5b50335f5f6101000a81548173ffffffffffffffffffffffffffffffffffffffff021916908373ffffffffffffffffffffffffffffffffffffffff1602179055506140b58061005b5f395ff3fe608060405260043610610203575f3560e01c8063a846fc8f11610117578063d3b368c01161009f578063e165af871161006e578063e165af871461079f578063e261f1e5146107db578063edfbe24714610821578063f9c43bdf14610849578063fa0245491461087157610203565b8063d3b368c0146106bb578063d61ff68c146106e3578063d8513de414610727578063de1176881461076357610203565b8063c6dcdc37116100e6578063c6dcdc37146105b5578063ccfdc19b146105f1578063cfb0ba7a14610619578063d196ebf214610655578063d251839b1461069157610203565b8063a846fc8f146104e6578063ace417e014610510578063b10a30ed1461054c578063c26e11eb1461058d57610203565b80634d8131201161019a5780636cbf6cf8116101695780636cbf6cf8146104125780637517e00f1461044e57806378f7c83f14610476578063995a8d96146104a05780639c32e3b4146104bc57610203565b80634d813120146103635780635114cb521461038b578063553a998d146103a757806364efa002146103d157610203565b80632d7788db116101d65780632d7788db146102c15780633ead67b5146102e9578063499701b2146103115780634ba1f0981461033b57610203565b806307973ccf14610207578063163f7522146102315780631c9afd0f1461026d57806323393d7714610297575b5f5ffd5b348015610212575f5ffd5b5061021b6108ad565b604051610228919061303e565b60405180910390f35b34801561023c575f5ffd5b50610257600480360381019061025291906130c2565b6108b3565b6040516102649190613107565b60405180910390f35b348015610278575f5ffd5b50610281610915565b60405161028e919061303e565b60405180910390f35b3480156102a2575f5ffd5b506102ab61091b565b6040516102b891906131d7565b60405180910390f35b3480156102cc575f5ffd5b506102e760048036038101906102e29190613221565b610981565b005b3480156102f4575f5ffd5b5061030f600480360381019061030a91906130c2565b610a2a565b005b34801561031c575f5ffd5b50610325610afa565b60405161033291906131d7565b60405180910390f35b348015610346575f5ffd5b50610361600480360381019061035c9190613221565b610b8b565b005b34801561036e575f5ffd5b50610389600480360381019061038491906130c2565b610c34565b005b6103a560048036038101906103a09190613221565b610ca0565b005b3480156103b2575f5ffd5b506103bb610e88565b6040516103c89190613303565b60405180910390f35b3480156103dc575f5ffd5b506103f760048036038101906103f291906130c2565b610f23565b604051610409969594939291906133a2565b60405180910390f35b34801561041d575f5ffd5b5061043860048036038101906104339190613221565b61110c565b6040516104459190613107565b60405180910390f35b348015610459575f5ffd5b50610474600480360381019061046f91906130c2565b611136565b005b348015610481575f5ffd5b5061048a611471565b604051610497919061303e565b60405180910390f35b6104ba60048036038101906104b59190613451565b611477565b005b3480156104c7575f5ffd5b506104d06114be565b6040516104dd91906131d7565b60405180910390f35b3480156104f1575f5ffd5b506104fa61154f565b60405161050791906131d7565b60405180910390f35b34801561051b575f5ffd5b50610536600480360381019061053191906130c2565b6115b5565b6040516105439190613107565b60405180910390f35b348015610557575f5ffd5b50610572600480360381019061056d9190613221565b61160a565b604051610584969594939291906134fe565b60405180910390f35b348015610598575f5ffd5b506105b360048036038101906105ae9190613221565b611699565b005b3480156105c0575f5ffd5b506105db60048036038101906105d69190613689565b611733565b6040516105e89190613107565b60405180910390f35b3480156105fc575f5ffd5b5061061760048036038101906106129190613754565b6119d8565b005b348015610624575f5ffd5b5061063f600480360381019061063a9190613221565b611c29565b60405161064c919061303e565b60405180910390f35b348015610660575f5ffd5b5061067b600480360381019061067691906130c2565b611c46565b60405161068891906131d7565b60405180910390f35b34801561069c575f5ffd5b506106a5611cd9565b6040516106b29190613303565b60405180910390f35b3480156106c6575f5ffd5b506106e160048036038101906106dc9190613221565b611d74565b005b3480156106ee575f5ffd5b50610709600480360381019061070491906130c2565b612050565b60405161071e99989796959493929190613861565b60405180910390f35b348015610732575f5ffd5b5061074d60048036038101906107489190613221565b6123e9565b60405161075a9190613107565b60405180910390f35b34801561076e575f5ffd5b50610789600480360381019061078491906130c2565b612413565b6040516107969190613107565b60405180910390f35b3480156107aa575f5ffd5b506107c560048036038101906107c091906130c2565b612479565b6040516107d29190613107565b60405180910390f35b3480156107e6575f5ffd5b5061080160048036038101906107fc9190613221565b6124db565b6040516108189b9a99989796959493929190613916565b60405180910390f35b34801561082c575f5ffd5b50610847600480360381019061084291906139db565b612782565b005b348015610854575f5ffd5b5061086f600480360381019061086a9190613221565b612a95565b005b34801561087c575f5ffd5b5061089760048036038101906108929190613b20565b612ad6565b6040516108a49190613107565b60405180910390f35b60025481565b5f600c5f8373ffffffffffffffffffffffffffffffffffffffff1673ffffffffffffffffffffffffffffffffffffffff1681526020019081526020015f205f9054906101000a900460ff161561090c5760019050610910565b5f90505b919050565b60035481565b606060125f600181526020019081526020015f2080548060200260200160405190810160405280929190818152602001828054801561097757602002820191905f5260205f20905b815481526020019060010190808311610963575b5050505050905090565b3373ffffffffffffffffffffffffffffffffffffffff16600f5f8381526020019081526020015f206001015f9054906101000a900473ffffffffffffffffffffffffffffffffffffffff1673ffffffffffffffffffffffffffffffffffffffff16146109eb575f5ffd5b6002600f5f8381526020019081526020015f206004015f6101000a81548160ff02191690836004811115610a2257610a2161348b565b5b021790555050565b5f5f9054906101000a900473ffffffffffffffffffffffffffffffffffffffff1673ffffffffffffffffffffffffffffffffffffffff163373ffffffffffffffffffffffffffffffffffffffff1614610ab8576040517f08c379a0000000000000000000000000000000000000000000000000000000008152600401610aaf90613bc4565b60405180910390fd5b805f5f6101000a81548173ffffffffffffffffffffffffffffffffffffffff021916908373ffffffffffffffffffffffffffffffffffffffff16021790555050565b606060105f3373ffffffffffffffffffffffffffffffffffffffff1673ffffffffffffffffffffffffffffffffffffffff1681526020019081526020015f20805480602002602001604051908101604052809291908181526020018280548015610b8157602002820191905f5260205f20905b815481526020019060010190808311610b6d575b5050505050905090565b3373ffffffffffffffffffffffffffffffffffffffff16600f5f8381526020019081526020015f206001015f9054906101000a900473ffffffffffffffffffffffffffffffffffffffff1673ffffffffffffffffffffffffffffffffffffffff1614610bf5575f5ffd5b6001600f5f8381526020019081526020015f206004015f6101000a81548160ff02191690836004811115610c2c57610c2b61348b565b5b021790555050565b610c3d33612479565b610c45575f5ffd5b600160095f8373ffffffffffffffffffffffffffffffffffffffff1673ffffffffffffffffffffffffffffffffffffffff1681526020019081526020015f206008015f6101000a81548160ff02191690831515021790555050565b3373ffffffffffffffffffffffffffffffffffffffff16600f5f8381526020019081526020015f206002015f9054906101000a900473ffffffffffffffffffffffffffffffffffffffff1673ffffffffffffffffffffffffffffffffffffffff16148015610d52575060016004811115610d1d57610d1c61348b565b5b600f5f8381526020019081526020015f206004015f9054906101000a900460ff166004811115610d5057610d4f61348b565b5b145b610d5a575f5ffd5b6003600f5f8381526020019081526020015f206004015f6101000a81548160ff02191690836004811115610d9157610d9061348b565b5b0217905550600e5f600f5f8481526020019081526020015f206003015481526020019081526020015f2060080160019054906101000a900473ffffffffffffffffffffffffffffffffffffffff1673ffffffffffffffffffffffffffffffffffffffff166108fc3490811502906040515f60405180830381858888f19350505050158015610e21573d5f5f3e3d5ffd5b506001600f5f8381526020019081526020015f2060040160016101000a81548160ff02191690831515021790555060135f600181526020019081526020015f2081908060018154018082558091505060019003905f5260205f20015f909190919091505550565b6060600b5f600181526020019081526020015f20805480602002602001604051908101604052809291908181526020018280548015610f1957602002820191905f5260205f20905b815f9054906101000a900473ffffffffffffffffffffffffffffffffffffffff1673ffffffffffffffffffffffffffffffffffffffff1681526020019060010190808311610ed0575b5050505050905090565b6006602052805f5260405f205f91509050805f015490806001015f9054906101000a900473ffffffffffffffffffffffffffffffffffffffff1690806002018054610f6d90613c0f565b80601f0160208091040260200160405190810160405280929190818152602001828054610f9990613c0f565b8015610fe45780601f10610fbb57610100808354040283529160200191610fe4565b820191905f5260205f20905b815481529060010190602001808311610fc757829003601f168201915b505050505090806003015490806004018054610fff90613c0f565b80601f016020809104026020016040519081016040528092919081815260200182805461102b90613c0f565b80156110765780601f1061104d57610100808354040283529160200191611076565b820191905f5260205f20905b81548152906001019060200180831161105957829003601f168201915b50505050509080600501805461108b90613c0f565b80601f01602080910402602001604051908101604052809291908181526020018280546110b790613c0f565b80156111025780601f106110d957610100808354040283529160200191611102565b820191905f5260205f20905b8154815290600101906020018083116110e557829003601f168201915b5050505050905086565b5f600e5f8381526020019081526020015f2060080160159054906101000a900460ff169050919050565b5f5f9054906101000a900473ffffffffffffffffffffffffffffffffffffffff1673ffffffffffffffffffffffffffffffffffffffff163373ffffffffffffffffffffffffffffffffffffffff16146111c4576040517f08c379a00000000000000000000000000000000000000000000000000000000081526004016111bb90613c89565b60405180910390fd5b60085f8273ffffffffffffffffffffffffffffffffffffffff1673ffffffffffffffffffffffffffffffffffffffff1681526020019081526020015f205f9054906101000a900460ff1661124d576040517f08c379a000000000000000000000000000000000000000000000000000000000815260040161124490613cf1565b60405180910390fd5b5f60085f8373ffffffffffffffffffffffffffffffffffffffff1673ffffffffffffffffffffffffffffffffffffffff1681526020019081526020015f205f6101000a81548160ff0219169083151502179055505f60075f600181526020019081526020015f208054905090505f5f90505b8181101561146c578273ffffffffffffffffffffffffffffffffffffffff1660075f600181526020019081526020015f20828154811061130257611301613d0f565b5b905f5260205f20015f9054906101000a900473ffffffffffffffffffffffffffffffffffffffff1673ffffffffffffffffffffffffffffffffffffffff160361145f5760075f600181526020019081526020015f206001836113649190613d69565b8154811061137557611374613d0f565b5b905f5260205f20015f9054906101000a900473ffffffffffffffffffffffffffffffffffffffff1660075f600181526020019081526020015f2082815481106113c1576113c0613d0f565b5b905f5260205f20015f6101000a81548173ffffffffffffffffffffffffffffffffffffffff021916908373ffffffffffffffffffffffffffffffffffffffff16021790555060075f600181526020019081526020015f2080548061142857611427613d9c565b5b600190038181905f5260205f20015f6101000a81549073ffffffffffffffffffffffffffffffffffffffff0219169055905561146c565b80806001019150506112bf565b505050565b60045481565b8073ffffffffffffffffffffffffffffffffffffffff166108fc3490811502906040515f60405180830381858888f193505050501580156114ba573d5f5f3e3d5ffd5b5050565b606060115f3373ffffffffffffffffffffffffffffffffffffffff1673ffffffffffffffffffffffffffffffffffffffff1681526020019081526020015f2080548060200260200160405190810160405280929190818152602001828054801561154557602002820191905f5260205f20905b815481526020019060010190808311611531575b5050505050905090565b606060135f600181526020019081526020015f208054806020026020016040519081016040528092919081815260200182805480156115ab57602002820191905f5260205f20905b815481526020019060010190808311611597575b5050505050905090565b5f60095f8373ffffffffffffffffffffffffffffffffffffffff1673ffffffffffffffffffffffffffffffffffffffff1681526020019081526020015f206008015f9054906101000a900460ff169050919050565b600f602052805f5260405f205f91509050805f015490806001015f9054906101000a900473ffffffffffffffffffffffffffffffffffffffff1690806002015f9054906101000a900473ffffffffffffffffffffffffffffffffffffffff1690806003015490806004015f9054906101000a900460ff16908060040160019054906101000a900460ff16905086565b3373ffffffffffffffffffffffffffffffffffffffff16600e5f8381526020019081526020015f2060080160019054906101000a900473ffffffffffffffffffffffffffffffffffffffff1673ffffffffffffffffffffffffffffffffffffffff1614611704575f5ffd5b6001600e5f8381526020019081526020015f206008015f6101000a81548160ff02191690831515021790555050565b5f3373ffffffffffffffffffffffffffffffffffffffff165f5f9054906101000a900473ffffffffffffffffffffffffffffffffffffffff1673ffffffffffffffffffffffffffffffffffffffff161461178f575f90506119cf565b3373ffffffffffffffffffffffffffffffffffffffff165f5f9054906101000a900473ffffffffffffffffffffffffffffffffffffffff1673ffffffffffffffffffffffffffffffffffffffff16146117e6575f5ffd5b600160085f8873ffffffffffffffffffffffffffffffffffffffff1673ffffffffffffffffffffffffffffffffffffffff1681526020019081526020015f205f6101000a81548160ff02191690831515021790555060075f600181526020019081526020015f2086908060018154018082558091505060019003905f5260205f20015f9091909190916101000a81548173ffffffffffffffffffffffffffffffffffffffff021916908373ffffffffffffffffffffffffffffffffffffffff1602179055506040518060c0016040528060015481526020018773ffffffffffffffffffffffffffffffffffffffff1681526020018681526020018581526020018481526020018381525060065f8873ffffffffffffffffffffffffffffffffffffffff1673ffffffffffffffffffffffffffffffffffffffff1681526020019081526020015f205f820151815f01556020820151816001015f6101000a81548173ffffffffffffffffffffffffffffffffffffffff021916908373ffffffffffffffffffffffffffffffffffffffff16021790555060408201518160020190816119909190613f69565b506060820151816003015560808201518160040190816119b09190613f69565b5060a08201518160050190816119c69190613f69565b50905050600190505b95945050505050565b6119e1336115b5565b6119e9575f5ffd5b60035f8154809291906119fb90614038565b919050555060405180610160016040528060035481526020018881526020018781526020018681526020018581526020018481526020018381526020018281526020015f151581526020013373ffffffffffffffffffffffffffffffffffffffff1681526020015f1515815250600e5f60035481526020019081526020015f205f820151815f0155602082015181600101556040820151816002019081611aa29190613f69565b50606082015181600301556080820151816004019081611ac29190613f69565b5060a0820151816005015560c0820151816006019081611ae29190613f69565b5060e0820151816007019081611af89190613f69565b50610100820151816008015f6101000a81548160ff0219169083151502179055506101208201518160080160016101000a81548173ffffffffffffffffffffffffffffffffffffffff021916908373ffffffffffffffffffffffffffffffffffffffff1602179055506101408201518160080160156101000a81548160ff021916908315150217905550905050600d5f3373ffffffffffffffffffffffffffffffffffffffff1673ffffffffffffffffffffffffffffffffffffffff1681526020019081526020015f20600354908060018154018082558091505060019003905f5260205f20015f909190919091505560125f600181526020019081526020015f20600354908060018154018082558091505060019003905f5260205f20015f909190919091505550505050505050565b5f600e5f8381526020019081526020015f20600301549050919050565b6060600d5f8373ffffffffffffffffffffffffffffffffffffffff1673ffffffffffffffffffffffffffffffffffffffff1681526020019081526020015f20805480602002602001604051908101604052809291908181526020018280548015611ccd57602002820191905f5260205f20905b815481526020019060010190808311611cb9575b50505050509050919050565b606060075f600181526020019081526020015f20805480602002602001604051908101604052809291908181526020018280548015611d6a57602002820191905f5260205f20905b815f9054906101000a900473ffffffffffffffffffffffffffffffffffffffff1673ffffffffffffffffffffffffffffffffffffffff1681526020019060010190808311611d21575b5050505050905090565b611d7d336115b5565b8015611d8e5750611d8d8161110c565b5b611d96575f5ffd5b60055f815480929190611da890614038565b91905055506040518060c001604052806005548152602001600e5f8481526020019081526020015f2060080160019054906101000a900473ffffffffffffffffffffffffffffffffffffffff1673ffffffffffffffffffffffffffffffffffffffff1681526020013373ffffffffffffffffffffffffffffffffffffffff1681526020018281526020015f6004811115611e4557611e4461348b565b5b81526020015f1515815250600f5f60055481526020019081526020015f205f820151815f01556020820151816001015f6101000a81548173ffffffffffffffffffffffffffffffffffffffff021916908373ffffffffffffffffffffffffffffffffffffffff1602179055506040820151816002015f6101000a81548173ffffffffffffffffffffffffffffffffffffffff021916908373ffffffffffffffffffffffffffffffffffffffff160217905550606082015181600301556080820151816004015f6101000a81548160ff02191690836004811115611f2b57611f2a61348b565b5b021790555060a08201518160040160016101000a81548160ff02191690831515021790555090505060105f600e5f8481526020019081526020015f2060080160019054906101000a900473ffffffffffffffffffffffffffffffffffffffff1673ffffffffffffffffffffffffffffffffffffffff1673ffffffffffffffffffffffffffffffffffffffff1681526020019081526020015f20600554908060018154018082558091505060019003905f5260205f20015f909190919091505560115f3373ffffffffffffffffffffffffffffffffffffffff1673ffffffffffffffffffffffffffffffffffffffff1681526020019081526020015f20600554908060018154018082558091505060019003905f5260205f20015f909190919091505550565b6009602052805f5260405f205f91509050805f015f9054906101000a900473ffffffffffffffffffffffffffffffffffffffff169080600101805461209490613c0f565b80601f01602080910402602001604051908101604052809291908181526020018280546120c090613c0f565b801561210b5780601f106120e25761010080835404028352916020019161210b565b820191905f5260205f20905b8154815290600101906020018083116120ee57829003601f168201915b50505050509080600201549080600301805461212690613c0f565b80601f016020809104026020016040519081016040528092919081815260200182805461215290613c0f565b801561219d5780601f106121745761010080835404028352916020019161219d565b820191905f5260205f20905b81548152906001019060200180831161218057829003601f168201915b5050505050908060040180546121b290613c0f565b80601f01602080910402602001604051908101604052809291908181526020018280546121de90613c0f565b80156122295780601f1061220057610100808354040283529160200191612229565b820191905f5260205f20905b81548152906001019060200180831161220c57829003601f168201915b50505050509080600501805461223e90613c0f565b80601f016020809104026020016040519081016040528092919081815260200182805461226a90613c0f565b80156122b55780601f1061228c576101008083540402835291602001916122b5565b820191905f5260205f20905b81548152906001019060200180831161229857829003601f168201915b5050505050908060060180546122ca90613c0f565b80601f01602080910402602001604051908101604052809291908181526020018280546122f690613c0f565b80156123415780601f1061231857610100808354040283529160200191612341565b820191905f5260205f20905b81548152906001019060200180831161232457829003601f168201915b50505050509080600701805461235690613c0f565b80601f016020809104026020016040519081016040528092919081815260200182805461238290613c0f565b80156123cd5780601f106123a4576101008083540402835291602001916123cd565b820191905f5260205f20905b8154815290600101906020018083116123b057829003601f168201915b505050505090806008015f9054906101000a900460ff16905089565b5f600f5f8381526020019081526020015f2060040160019054906101000a900460ff169050919050565b5f5f5f9054906101000a900473ffffffffffffffffffffffffffffffffffffffff1673ffffffffffffffffffffffffffffffffffffffff168273ffffffffffffffffffffffffffffffffffffffff16036124705760019050612474565b5f90505b919050565b5f60085f8373ffffffffffffffffffffffffffffffffffffffff1673ffffffffffffffffffffffffffffffffffffffff1681526020019081526020015f205f9054906101000a900460ff16156124d257600190506124d6565b5f90505b919050565b600e602052805f5260405f205f91509050805f01549080600101549080600201805461250690613c0f565b80601f016020809104026020016040519081016040528092919081815260200182805461253290613c0f565b801561257d5780601f106125545761010080835404028352916020019161257d565b820191905f5260205f20905b81548152906001019060200180831161256057829003601f168201915b50505050509080600301549080600401805461259890613c0f565b80601f01602080910402602001604051908101604052809291908181526020018280546125c490613c0f565b801561260f5780601f106125e65761010080835404028352916020019161260f565b820191905f5260205f20905b8154815290600101906020018083116125f257829003601f168201915b50505050509080600501549080600601805461262a90613c0f565b80601f016020809104026020016040519081016040528092919081815260200182805461265690613c0f565b80156126a15780601f10612678576101008083540402835291602001916126a1565b820191905f5260205f20905b81548152906001019060200180831161268457829003601f168201915b5050505050908060070180546126b690613c0f565b80601f01602080910402602001604051908101604052809291908181526020018280546126e290613c0f565b801561272d5780601f106127045761010080835404028352916020019161272d565b820191905f5260205f20905b81548152906001019060200180831161271057829003601f168201915b505050505090806008015f9054906101000a900460ff16908060080160019054906101000a900473ffffffffffffffffffffffffffffffffffffffff16908060080160159054906101000a900460ff1690508b565b600c5f3373ffffffffffffffffffffffffffffffffffffffff1673ffffffffffffffffffffffffffffffffffffffff1681526020019081526020015f205f9054906101000a900460ff16156127d5575f5ffd5b6001600c5f3373ffffffffffffffffffffffffffffffffffffffff1673ffffffffffffffffffffffffffffffffffffffff1681526020019081526020015f205f6101000a81548160ff02191690831515021790555060025f81548092919061283c90614038565b9190505550600b5f600181526020019081526020015f2033908060018154018082558091505060019003905f5260205f20015f9091909190916101000a81548173ffffffffffffffffffffffffffffffffffffffff021916908373ffffffffffffffffffffffffffffffffffffffff16021790555033600a5f60025481526020019081526020015f205f6101000a81548173ffffffffffffffffffffffffffffffffffffffff021916908373ffffffffffffffffffffffffffffffffffffffff1602179055506040518061012001604052803373ffffffffffffffffffffffffffffffffffffffff1681526020018881526020018781526020018681526020018581526020018481526020018381526020018281526020015f151581525060095f3373ffffffffffffffffffffffffffffffffffffffff1673ffffffffffffffffffffffffffffffffffffffff1681526020019081526020015f205f820151815f015f6101000a81548173ffffffffffffffffffffffffffffffffffffffff021916908373ffffffffffffffffffffffffffffffffffffffff16021790555060208201518160010190816129f09190613f69565b50604082015181600201556060820151816003019081612a109190613f69565b506080820151816004019081612a269190613f69565b5060a0820151816005019081612a3c9190613f69565b5060c0820151816006019081612a529190613f69565b5060e0820151816007019081612a689190613f69565b50610100820151816008015f6101000a81548160ff02191690831515021790555090505050505050505050565b612a9e33612479565b612aa6575f5ffd5b6001600e5f8381526020019081526020015f2060080160156101000a81548160ff02191690831515021790555050565b5f612ae033612479565b612ae8575f5ffd5b5f1515600f5f8581526020019081526020015f2060040160019054906101000a900460ff16151503612b1c575f9050613020565b60045f815480929190612b2e90614038565b91905055506004600f5f8581526020019081526020015f206004015f6101000a81548160ff02191690836004811115612b6a57612b6961348b565b5b0217905550600d5f600f5f8681526020019081526020015f206002015f9054906101000a900473ffffffffffffffffffffffffffffffffffffffff1673ffffffffffffffffffffffffffffffffffffffff1673ffffffffffffffffffffffffffffffffffffffff1681526020019081526020015f20600f5f8581526020019081526020015f2060030154908060018154018082558091505060019003905f5260205f20015f90919091909150555f600d5f600f5f8781526020019081526020015f206001015f9054906101000a900473ffffffffffffffffffffffffffffffffffffffff1673ffffffffffffffffffffffffffffffffffffffff1673ffffffffffffffffffffffffffffffffffffffff1681526020019081526020015f208054905090505f5f90505b81811015612f0a57600f5f8681526020019081526020015f2060030154600d5f600f5f8981526020019081526020015f206001015f9054906101000a900473ffffffffffffffffffffffffffffffffffffffff1673ffffffffffffffffffffffffffffffffffffffff1673ffffffffffffffffffffffffffffffffffffffff1681526020019081526020015f208281548110612d3257612d31613d0f565b5b905f5260205f20015403612efd57600d5f600f5f8881526020019081526020015f206001015f9054906101000a900473ffffffffffffffffffffffffffffffffffffffff1673ffffffffffffffffffffffffffffffffffffffff1673ffffffffffffffffffffffffffffffffffffffff1681526020019081526020015f20600183612dbd9190613d69565b81548110612dce57612dcd613d0f565b5b905f5260205f200154600d5f600f5f8981526020019081526020015f206001015f9054906101000a900473ffffffffffffffffffffffffffffffffffffffff1673ffffffffffffffffffffffffffffffffffffffff1673ffffffffffffffffffffffffffffffffffffffff1681526020019081526020015f208281548110612e5957612e58613d0f565b5b905f5260205f200181905550600d5f600f5f8881526020019081526020015f206001015f9054906101000a900473ffffffffffffffffffffffffffffffffffffffff1673ffffffffffffffffffffffffffffffffffffffff1673ffffffffffffffffffffffffffffffffffffffff1681526020019081526020015f20805480612ee557612ee4613d9c565b5b600190038181905f5260205f20015f90559055612f0a565b8080600101915050612c93565b5082600e5f600f5f8881526020019081526020015f206003015481526020019081526020015f206007019081612f409190613f69565b505f600e5f600f5f8881526020019081526020015f206003015481526020019081526020015f206008015f6101000a81548160ff021916908315150217905550600f5f8581526020019081526020015f206002015f9054906101000a900473ffffffffffffffffffffffffffffffffffffffff16600e5f600f5f8881526020019081526020015f206003015481526020019081526020015f2060080160016101000a81548173ffffffffffffffffffffffffffffffffffffffff021916908373ffffffffffffffffffffffffffffffffffffffff16021790555060019150505b92915050565b5f819050919050565b61303881613026565b82525050565b5f6020820190506130515f83018461302f565b92915050565b5f604051905090565b5f5ffd5b5f5ffd5b5f73ffffffffffffffffffffffffffffffffffffffff82169050919050565b5f61309182613068565b9050919050565b6130a181613087565b81146130ab575f5ffd5b50565b5f813590506130bc81613098565b92915050565b5f602082840312156130d7576130d6613060565b5b5f6130e4848285016130ae565b91505092915050565b5f8115159050919050565b613101816130ed565b82525050565b5f60208201905061311a5f8301846130f8565b92915050565b5f81519050919050565b5f82825260208201905092915050565b5f819050602082019050919050565b61315281613026565b82525050565b5f6131638383613149565b60208301905092915050565b5f602082019050919050565b5f61318582613120565b61318f818561312a565b935061319a8361313a565b805f5b838110156131ca5781516131b18882613158565b97506131bc8361316f565b92505060018101905061319d565b5085935050505092915050565b5f6020820190508181035f8301526131ef818461317b565b905092915050565b61320081613026565b811461320a575f5ffd5b50565b5f8135905061321b816131f7565b92915050565b5f6020828403121561323657613235613060565b5b5f6132438482850161320d565b91505092915050565b5f81519050919050565b5f82825260208201905092915050565b5f819050602082019050919050565b61327e81613087565b82525050565b5f61328f8383613275565b60208301905092915050565b5f602082019050919050565b5f6132b18261324c565b6132bb8185613256565b93506132c683613266565b805f5b838110156132f65781516132dd8882613284565b97506132e88361329b565b9250506001810190506132c9565b5085935050505092915050565b5f6020820190508181035f83015261331b81846132a7565b905092915050565b61332c81613087565b82525050565b5f81519050919050565b5f82825260208201905092915050565b8281835e5f83830152505050565b5f601f19601f8301169050919050565b5f61337482613332565b61337e818561333c565b935061338e81856020860161334c565b6133978161335a565b840191505092915050565b5f60c0820190506133b55f83018961302f565b6133c26020830188613323565b81810360408301526133d4818761336a565b90506133e3606083018661302f565b81810360808301526133f5818561336a565b905081810360a0830152613409818461336a565b9050979650505050505050565b5f61342082613068565b9050919050565b61343081613416565b811461343a575f5ffd5b50565b5f8135905061344b81613427565b92915050565b5f6020828403121561346657613465613060565b5b5f6134738482850161343d565b91505092915050565b61348581613416565b82525050565b7f4e487b71000000000000000000000000000000000000000000000000000000005f52602160045260245ffd5b600581106134c9576134c861348b565b5b50565b5f8190506134d9826134b8565b919050565b5f6134e8826134cc565b9050919050565b6134f8816134de565b82525050565b5f60c0820190506135115f83018961302f565b61351e602083018861347c565b61352b604083018761347c565b613538606083018661302f565b61354560808301856134ef565b61355260a08301846130f8565b979650505050505050565b5f5ffd5b5f5ffd5b7f4e487b71000000000000000000000000000000000000000000000000000000005f52604160045260245ffd5b61359b8261335a565b810181811067ffffffffffffffff821117156135ba576135b9613565565b5b80604052505050565b5f6135cc613057565b90506135d88282613592565b919050565b5f67ffffffffffffffff8211156135f7576135f6613565565b5b6136008261335a565b9050602081019050919050565b828183375f83830152505050565b5f61362d613628846135dd565b6135c3565b90508281526020810184848401111561364957613648613561565b5b61365484828561360d565b509392505050565b5f82601f8301126136705761366f61355d565b5b813561368084826020860161361b565b91505092915050565b5f5f5f5f5f60a086880312156136a2576136a1613060565b5b5f6136af888289016130ae565b955050602086013567ffffffffffffffff8111156136d0576136cf613064565b5b6136dc8882890161365c565b94505060406136ed8882890161320d565b935050606086013567ffffffffffffffff81111561370e5761370d613064565b5b61371a8882890161365c565b925050608086013567ffffffffffffffff81111561373b5761373a613064565b5b6137478882890161365c565b9150509295509295909350565b5f5f5f5f5f5f5f60e0888a03121561376f5761376e613060565b5b5f61377c8a828b0161320d565b975050602088013567ffffffffffffffff81111561379d5761379c613064565b5b6137a98a828b0161365c565b96505060406137ba8a828b0161320d565b955050606088013567ffffffffffffffff8111156137db576137da613064565b5b6137e78a828b0161365c565b94505060806137f88a828b0161320d565b93505060a088013567ffffffffffffffff81111561381957613818613064565b5b6138258a828b0161365c565b92505060c088013567ffffffffffffffff81111561384657613845613064565b5b6138528a828b0161365c565b91505092959891949750929550565b5f610120820190506138755f83018c613323565b8181036020830152613887818b61336a565b9050613896604083018a61302f565b81810360608301526138a8818961336a565b905081810360808301526138bc818861336a565b905081810360a08301526138d0818761336a565b905081810360c08301526138e4818661336a565b905081810360e08301526138f8818561336a565b90506139086101008301846130f8565b9a9950505050505050505050565b5f6101608201905061392a5f83018e61302f565b613937602083018d61302f565b8181036040830152613949818c61336a565b9050613958606083018b61302f565b818103608083015261396a818a61336a565b905061397960a083018961302f565b81810360c083015261398b818861336a565b905081810360e083015261399f818761336a565b90506139af6101008301866130f8565b6139bd61012083018561347c565b6139cb6101408301846130f8565b9c9b505050505050505050505050565b5f5f5f5f5f5f5f60e0888a0312156139f6576139f5613060565b5b5f88013567ffffffffffffffff811115613a1357613a12613064565b5b613a1f8a828b0161365c565b9750506020613a308a828b0161320d565b965050604088013567ffffffffffffffff811115613a5157613a50613064565b5b613a5d8a828b0161365c565b955050606088013567ffffffffffffffff811115613a7e57613a7d613064565b5b613a8a8a828b0161365c565b945050608088013567ffffffffffffffff811115613aab57613aaa613064565b5b613ab78a828b0161365c565b93505060a088013567ffffffffffffffff811115613ad857613ad7613064565b5b613ae48a828b0161365c565b92505060c088013567ffffffffffffffff811115613b0557613b04613064565b5b613b118a828b0161365c565b91505092959891949750929550565b5f5f60408385031215613b3657613b35613060565b5b5f613b438582860161320d565b925050602083013567ffffffffffffffff811115613b6457613b63613064565b5b613b708582860161365c565b9150509250929050565b7f796f7520617265206e6f7420636f6e74726163744f776e6572000000000000005f82015250565b5f613bae60198361333c565b9150613bb982613b7a565b602082019050919050565b5f6020820190508181035f830152613bdb81613ba2565b9050919050565b7f4e487b71000000000000000000000000000000000000000000000000000000005f52602260045260245ffd5b5f6002820490506001821680613c2657607f821691505b602082108103613c3957613c38613be2565b5b50919050565b7f596f7520617265206e6f7420636f6e74726163744f776e6572000000000000005f82015250565b5f613c7360198361333c565b9150613c7e82613c3f565b602082019050919050565b5f6020820190508181035f830152613ca081613c67565b9050919050565b7f4c616e6420496e73706563746f72206e6f7420666f756e6400000000000000005f82015250565b5f613cdb60188361333c565b9150613ce682613ca7565b602082019050919050565b5f6020820190508181035f830152613d0881613ccf565b9050919050565b7f4e487b71000000000000000000000000000000000000000000000000000000005f52603260045260245ffd5b7f4e487b71000000000000000000000000000000000000000000000000000000005f52601160045260245ffd5b5f613d7382613026565b9150613d7e83613026565b9250828203905081811115613d9657613d95613d3c565b5b92915050565b7f4e487b71000000000000000000000000000000000000000000000000000000005f52603160045260245ffd5b5f819050815f5260205f209050919050565b5f6020601f8301049050919050565b5f82821b905092915050565b5f60088302613e257fffffffffffffffffffffffffffffffffffffffffffffffffffffffffffffffff82613dea565b613e2f8683613dea565b95508019841693508086168417925050509392505050565b5f819050919050565b5f613e6a613e65613e6084613026565b613e47565b613026565b9050919050565b5f819050919050565b613e8383613e50565b613e97613e8f82613e71565b848454613df6565b825550505050565b5f5f905090565b613eae613e9f565b613eb9818484613e7a565b505050565b5b81811015613edc57613ed15f82613ea6565b600181019050613ebf565b5050565b601f821115613f2157613ef281613dc9565b613efb84613ddb565b81016020851015613f0a578190505b613f1e613f1685613ddb565b830182613ebe565b50505b505050565b5f82821c905092915050565b5f613f415f1984600802613f26565b1980831691505092915050565b5f613f598383613f32565b9150826002028217905092915050565b613f7282613332565b67ffffffffffffffff811115613f8b57613f8a613565565b5b613f958254613c0f565b613fa0828285613ee0565b5f60209050601f831160018114613fd1575f8415613fbf578287015190505b613fc98582613f4e565b865550614030565b601f198416613fdf86613dc9565b5f5b8281101561400657848901518255600182019150602085019450602081019050613fe1565b86831015614023578489015161401f601f891682613f32565b8355505b6001600288020188555050505b505050505050565b5f61404282613026565b91507fffffffffffffffffffffffffffffffffffffffffffffffffffffffffffffffff820361407457614073613d3c565b5b60018201905091905056fea26469706673582212202f3867ef0d4e575274dfed596290485ef6db39f663c6089ccf3b9967731a042364736f6c634300081d0033",
  "immutableReferences": {},
  "source": "// SPDX-License-Identifier: MIT\n\npragma solidity 0.8.29;\n\ncontract Land {\n    address contractOwner;\n\n    constructor() {\n        contractOwner = msg.sender;\n    }\n\n    struct Landreg {\n        uint id;\n        uint area;\n        string landAddress;\n        uint landPrice;\n        string allLatitudeLongitude;\n        //string allLongitude;\n        uint propertyPID;\n        string physicalSurveyNumber;\n        string document;\n        bool isforSell;\n        address payable ownerAddress;\n        bool isLandVerified;\n    }\n\n    struct User{\n        address id;\n        string name;\n        uint age;\n        string city;\n        string aadharNumber;\n        string panNumber;\n        string document;\n        string email;\n        bool isUserVerified;\n    }\n\n    struct LandInspector {\n        uint id;\n        address _addr;\n        string name;\n        uint age;\n        string designation;\n        string city;\n    }\n\n    struct LandRequest{\n        uint reqId;\n        address payable sellerId;\n        address payable buyerId;\n        uint landId;\n        reqStatus requestStatus;\n        bool isPaymentDone;\n    }\n    enum reqStatus {requested,accepted,rejected,paymentdone,commpleted}\n\n\n    uint inspectorsCount;\n    uint public userCount;\n    uint public landsCount;\n    uint public documentId;\n    uint requestCount;\n\n\n    mapping(address => LandInspector) public InspectorMapping;\n    mapping(uint => address[]) allLandInspectorList;\n    mapping(address => bool)  RegisteredInspectorMapping;\n    mapping(address => User) public UserMapping;\n    mapping(uint => address)  AllUsers;\n    mapping(uint => address[])  allUsersList;\n    mapping(address => bool)  RegisteredUserMapping;\n    mapping(address => uint[])  MyLands;\n    mapping(uint => Landreg) public lands;\n    mapping(uint => LandRequest) public LandRequestMapping;\n    mapping(address => uint[])  MyReceivedLandRequest;\n    mapping(address => uint[])  MySentLandRequest;\n    mapping(uint => uint[])  allLandList;\n    mapping(uint => uint[])  paymentDoneList;\n\n\n    function isContractOwner(address _addr) public view returns(bool){\n        if(_addr==contractOwner)\n            return true;\n        else\n            return false;\n    }\n\n    function changeContractOwner(address _addr)public {\n        require(msg.sender==contractOwner,\"you are not contractOwner\");\n\n        contractOwner=_addr;\n    }\n\n    //-----------------------------------------------LandInspector-----------------------------------------------\n\n    function addLandInspector(address _addr,string memory _name, uint _age, string memory _designation,string memory _city) public returns(bool){\n        if(contractOwner!=msg.sender)\n            return false;\n        require(contractOwner==msg.sender);\n        RegisteredInspectorMapping[_addr]=true;\n        allLandInspectorList[1].push(_addr);\n        InspectorMapping[_addr] = LandInspector(inspectorsCount,_addr,_name, _age, _designation,_city);\n        return true;\n    }\n\n    function ReturnAllLandIncpectorList() public view returns(address[] memory)\n    {\n        return allLandInspectorList[1];\n    }\n\n    function removeLandInspector(address _addr) public{\n        require(msg.sender==contractOwner,\"You are not contractOwner\");\n        require(RegisteredInspectorMapping[_addr],\"Land Inspector not found\");\n        RegisteredInspectorMapping[_addr]=false;\n\n\n        uint len=allLandInspectorList[1].length;\n        for(uint i=0;i<len;i++)\n        {\n            if(allLandInspectorList[1][i]==_addr)\n            {\n                allLandInspectorList[1][i]=allLandInspectorList[1][len-1];\n                allLandInspectorList[1].pop();\n                break;\n            }\n        }\n    }\n\n    function isLandInspector(address _id) public view returns (bool) {\n        if(RegisteredInspectorMapping[_id]){\n            return true;\n        }else{\n            return false;\n        }\n    }\n\n\n\n    //-----------------------------------------------User-----------------------------------------------\n\n    function isUserRegistered(address _addr) public view returns(bool)\n    {\n        if(RegisteredUserMapping[_addr]){\n            return true;\n        }else{\n            return false;\n        }\n    }\n\n    function registerUser(string memory _name, uint _age, string memory _city,string memory _aadharNumber, string memory _panNumber, string memory _document, string memory _email\n    ) public {\n\n        require(!RegisteredUserMapping[msg.sender]);\n\n        RegisteredUserMapping[msg.sender] = true;\n        userCount++;\n        allUsersList[1].push(msg.sender);\n        AllUsers[userCount]=msg.sender;\n        UserMapping[msg.sender] = User(msg.sender, _name, _age, _city,_aadharNumber,_panNumber, _document,_email,false);\n        //emit Registration(msg.sender);\n    }\n\n    function verifyUser(address _userId) public{\n        require(isLandInspector(msg.sender));\n        UserMapping[_userId].isUserVerified=true;\n    }\n    function isUserVerified(address id) public view returns(bool){\n        return UserMapping[id].isUserVerified;\n    }\n    function ReturnAllUserList() public view returns(address[] memory)\n    {\n        return allUsersList[1];\n    }\n\n\n    //-----------------------------------------------Land-----------------------------------------------\n    function addLand(uint _area, string memory _address, uint landPrice,string memory _allLatiLongi, uint _propertyPID,string memory _surveyNum, string memory _document) public {\n        require(isUserVerified(msg.sender));\n        landsCount++;\n        lands[landsCount] = Landreg(landsCount, _area, _address, landPrice,_allLatiLongi,_propertyPID, _surveyNum , _document,false,payable(msg.sender),false);\n        MyLands[msg.sender].push(landsCount);\n        allLandList[1].push(landsCount);\n        // emit AddingLand(landsCount);\n    }\n\n    function ReturnAllLandList() public view returns(uint[] memory)\n    {\n        return allLandList[1];\n    }\n\n    function verifyLand(uint _id) public{\n        require(isLandInspector(msg.sender));\n        lands[_id].isLandVerified=true;\n    }\n    function isLandVerified(uint id) public view returns(bool){\n        return lands[id].isLandVerified;\n    }\n\n    function myAllLands(address id) public view returns( uint[] memory){\n        return MyLands[id];\n    }\n\n\n    function makeItforSell(uint id) public{\n        require(lands[id].ownerAddress==msg.sender);\n        lands[id].isforSell=true;\n    }\n\n    function requestforBuy(uint _landId) public\n    {\n        require(isUserVerified(msg.sender) && isLandVerified(_landId));\n        requestCount++;\n        LandRequestMapping[requestCount]=LandRequest(requestCount,lands[_landId].ownerAddress,payable(msg.sender),_landId,reqStatus.requested,false);\n        MyReceivedLandRequest[lands[_landId].ownerAddress].push(requestCount);\n        MySentLandRequest[msg.sender].push(requestCount);\n    }\n\n    function myReceivedLandRequests() public view returns(uint[] memory)\n    {\n        return MyReceivedLandRequest[msg.sender];\n    }\n    function mySentLandRequests() public view returns(uint[] memory)\n    {\n        return MySentLandRequest[msg.sender];\n    }\n    function acceptRequest(uint _requestId) public\n    {\n        require(LandRequestMapping[_requestId].sellerId==msg.sender);\n        LandRequestMapping[_requestId].requestStatus=reqStatus.accepted;\n    }\n    function rejectRequest(uint _requestId) public\n    {\n        require(LandRequestMapping[_requestId].sellerId==msg.sender);\n        LandRequestMapping[_requestId].requestStatus=reqStatus.rejected;\n    }\n\n    function requesteStatus(uint id) public view returns(bool)\n    {\n        return LandRequestMapping[id].isPaymentDone;\n    }\n\n    function landPriceFun(uint id) public view returns(uint)\n    {\n        return lands[id].landPrice;\n    }\n    function makePayment(uint _requestId) public payable\n    {\n        require(LandRequestMapping[_requestId].buyerId==msg.sender && LandRequestMapping[_requestId].requestStatus==reqStatus.accepted);\n\n        LandRequestMapping[_requestId].requestStatus=reqStatus.paymentdone;\n        //LandRequestMapping[_requestId].sellerId.transfer(lands[LandRequestMapping[_requestId].landId].landPrice);\n        //lands[LandRequestMapping[_requestId].landId].ownerAddress.transfer(lands[LandRequestMapping[_requestId].landId].landPrice);\n        lands[LandRequestMapping[_requestId].landId].ownerAddress.transfer(msg.value);\n        LandRequestMapping[_requestId].isPaymentDone=true;\n        paymentDoneList[1].push(_requestId);\n    }\n\n    function returnPaymentDoneList() public view returns(uint[] memory)\n    {\n        return paymentDoneList[1];\n    }\n\n    function transferOwnership(uint _requestId,string memory documentUrl) public returns(bool)\n    {\n        require(isLandInspector(msg.sender));\n        if(LandRequestMapping[_requestId].isPaymentDone==false)\n            return false;\n        documentId++;\n        LandRequestMapping[_requestId].requestStatus=reqStatus.commpleted;\n        MyLands[LandRequestMapping[_requestId].buyerId].push(LandRequestMapping[_requestId].landId);\n\n        uint len=MyLands[LandRequestMapping[_requestId].sellerId].length;\n        for(uint i=0;i<len;i++)\n        {\n            if(MyLands[LandRequestMapping[_requestId].sellerId][i]==LandRequestMapping[_requestId].landId)\n            {\n                MyLands[LandRequestMapping[_requestId].sellerId][i]=MyLands[LandRequestMapping[_requestId].sellerId][len-1];\n                //MyLands[LandRequestMapping[_requestId].sellerId].length--;\n                MyLands[LandRequestMapping[_requestId].sellerId].pop();\n                break;\n            }\n        }\n        lands[LandRequestMapping[_requestId].landId].document=documentUrl;\n        lands[LandRequestMapping[_requestId].landId].isforSell=false;\n        lands[LandRequestMapping[_requestId].landId].ownerAddress=LandRequestMapping[_requestId].buyerId;\n        return true;\n    }\n    function makePaymentTestFun(address payable _reveiver) public payable\n    {\n        _reveiver.transfer(msg.value);\n    }\n}",
  "sourcePath": "C:\\Users\\kshit\\Downloads\\land_registry_updated (1)\\contracts\\landContrat.sol",
  "compiler": {
    "name": "solc",
    "version": "0.8.29+commit.ab55807c.Emscripten.clang"
  },
  "schemaVersion": "3.4.16",
  "updatedAt": "2025-03-23T18:10:39.840Z",
  "devdoc": {
    "kind": "dev",
    "methods": {},
    "version": 1
  },
  "userdoc": {
    "kind": "user",
    "methods": {},
    "version": 1
  }
}